{
  "address": "0xa0A2370Ad1D5AD31d30665E3B759be2Ba177211a",
  "abi": [
    {
      "inputs": [],
      "name": "duration",
      "outputs": [
        {
          "internalType": "uint256",
          "name": "",
          "type": "uint256"
        }
      ],
      "stateMutability": "pure",
      "type": "function"
    },
    {
      "inputs": [],
      "name": "reconfigurationDelay",
      "outputs": [
        {
          "internalType": "uint256",
          "name": "",
          "type": "uint256"
        }
      ],
      "stateMutability": "view",
      "type": "function"
    },
    {
      "inputs": [
        {
          "internalType": "uint256",
          "name": "",
          "type": "uint256"
        },
        {
          "internalType": "uint256",
          "name": "_configured",
          "type": "uint256"
        }
      ],
      "name": "state",
      "outputs": [
        {
          "internalType": "enum BallotState",
          "name": "",
          "type": "uint8"
        }
      ],
      "stateMutability": "view",
      "type": "function"
    }
  ],
  "transactionHash": "0x96630f3394dca56cc7a9dc56e8908ae1f25a5d658e870d5ef9ac51fc1ec595bc",
  "args": [],
  "solcInputHash": "ccb7a7bd8fb2979a6e849901853bc8b7",
  "bytecode": "0x608060405234801561001057600080fd5b5061018a806100206000396000f3fe608060405234801561001057600080fd5b50600436106100415760003560e01c806304f49616146100465780630fb5a6b4146100635780634d393dc91461006c575b600080fd5b61005062093a8081565b6040519081526020015b60405180910390f35b62093a80610050565b61007f61007a3660046100b2565b61008c565b60405161005a91906100d4565b600061009b62093a8083610115565b42116100a85760016100ab565b60005b9392505050565b600080604083850312156100c557600080fd5b50508035926020909101359150565b602081016004831061010f577f4e487b7100000000000000000000000000000000000000000000000000000000600052602160045260246000fd5b91905290565b6000821982111561014f577f4e487b7100000000000000000000000000000000000000000000000000000000600052601160045260246000fd5b50019056fea264697066735822122031d07dd4290016df8f174028ef64fd36a74b58d6c57694e1348923b50d023e2d64736f6c63430008060033",
  "devdoc": {
    "kind": "dev",
    "methods": {
      "duration()": {
        "details": "A ballot should not be considered final until the duration has passed.",
        "returns": {
          "_0": "The durection in seconds."
        }
      },
      "state(uint256,uint256)": {
        "params": {
          "_configured": "The configuration of the funding cycle to check the state of."
        },
        "returns": {
          "_0": "The state of the provided ballot."
        }
      }
    },
    "version": 1
  },
  "userdoc": {
    "kind": "user",
    "methods": {
      "duration()": {
        "notice": "The time that this ballot is active for."
      },
      "reconfigurationDelay()": {
        "notice": "The number of seconds that must pass for a funding cycle reconfiguration to become active."
      },
      "state(uint256,uint256)": {
        "notice": "The approval state of a particular funding cycle."
      }
    },
    "notice": "Manages votes towards approving funding cycle reconfigurations.",
    "version": 1
  },
  "storageLayout": {
    "storage": [],
    "types": null
  }
}