{
  "address": "0xbb84B712269386B3495dCEb1e81ee505da417e66",
  "abi": [
    {
      "inputs": [
        {
          "internalType": "contract ITerminalDirectory",
          "name": "_terminalDirectory",
          "type": "address"
        }
      ],
      "stateMutability": "nonpayable",
      "type": "constructor"
    },
    {
      "inputs": [
        {
          "internalType": "uint256",
          "name": "prod1",
          "type": "uint256"
        },
        {
          "internalType": "uint256",
          "name": "denominator",
          "type": "uint256"
        }
      ],
      "name": "PRBMath__MulDivOverflow",
      "type": "error"
    },
    {
      "anonymous": false,
      "inputs": [
        {
          "indexed": true,
          "internalType": "uint256",
          "name": "fundingCycleId",
          "type": "uint256"
        },
        {
          "indexed": true,
          "internalType": "uint256",
          "name": "projectId",
          "type": "uint256"
        },
        {
          "indexed": false,
          "internalType": "uint256",
          "name": "reconfigured",
          "type": "uint256"
        },
        {
          "components": [
            {
              "internalType": "uint256",
              "name": "target",
              "type": "uint256"
            },
            {
              "internalType": "uint256",
              "name": "currency",
              "type": "uint256"
            },
            {
              "internalType": "uint256",
              "name": "duration",
              "type": "uint256"
            },
            {
              "internalType": "uint256",
              "name": "cycleLimit",
              "type": "uint256"
            },
            {
              "internalType": "uint256",
              "name": "discountRate",
              "type": "uint256"
            },
            {
              "internalType": "contract IFundingCycleBallot",
              "name": "ballot",
              "type": "address"
            }
          ],
          "indexed": false,
          "internalType": "struct FundingCycleProperties",
          "name": "_properties",
          "type": "tuple"
        },
        {
          "indexed": false,
          "internalType": "uint256",
          "name": "metadata",
          "type": "uint256"
        },
        {
          "indexed": false,
          "internalType": "address",
          "name": "caller",
          "type": "address"
        }
      ],
      "name": "Configure",
      "type": "event"
    },
    {
      "anonymous": false,
      "inputs": [
        {
          "indexed": true,
          "internalType": "uint256",
          "name": "fundingCycleId",
          "type": "uint256"
        },
        {
          "indexed": true,
          "internalType": "uint256",
          "name": "projectId",
          "type": "uint256"
        },
        {
          "indexed": false,
          "internalType": "uint256",
          "name": "number",
          "type": "uint256"
        },
        {
          "indexed": false,
          "internalType": "uint256",
          "name": "previous",
          "type": "uint256"
        },
        {
          "indexed": false,
          "internalType": "uint256",
          "name": "weight",
          "type": "uint256"
        },
        {
          "indexed": false,
          "internalType": "uint256",
          "name": "start",
          "type": "uint256"
        }
      ],
      "name": "Init",
      "type": "event"
    },
    {
      "anonymous": false,
      "inputs": [
        {
          "indexed": true,
          "internalType": "uint256",
          "name": "fundingCycleId",
          "type": "uint256"
        },
        {
          "indexed": true,
          "internalType": "uint256",
          "name": "projectId",
          "type": "uint256"
        },
        {
          "indexed": false,
          "internalType": "uint256",
          "name": "amount",
          "type": "uint256"
        },
        {
          "indexed": false,
          "internalType": "uint256",
          "name": "newTappedAmount",
          "type": "uint256"
        },
        {
          "indexed": false,
          "internalType": "address",
          "name": "caller",
          "type": "address"
        }
      ],
      "name": "Tap",
      "type": "event"
    },
    {
      "inputs": [],
      "name": "BASE_WEIGHT",
      "outputs": [
        {
          "internalType": "uint256",
          "name": "",
          "type": "uint256"
        }
      ],
      "stateMutability": "view",
      "type": "function"
    },
    {
      "inputs": [],
      "name": "MAX_CYCLE_LIMIT",
      "outputs": [
        {
          "internalType": "uint256",
          "name": "",
          "type": "uint256"
        }
      ],
      "stateMutability": "view",
      "type": "function"
    },
    {
      "inputs": [
        {
          "internalType": "uint256",
          "name": "_projectId",
          "type": "uint256"
        },
        {
          "components": [
            {
              "internalType": "uint256",
              "name": "target",
              "type": "uint256"
            },
            {
              "internalType": "uint256",
              "name": "currency",
              "type": "uint256"
            },
            {
              "internalType": "uint256",
              "name": "duration",
              "type": "uint256"
            },
            {
              "internalType": "uint256",
              "name": "cycleLimit",
              "type": "uint256"
            },
            {
              "internalType": "uint256",
              "name": "discountRate",
              "type": "uint256"
            },
            {
              "internalType": "contract IFundingCycleBallot",
              "name": "ballot",
              "type": "address"
            }
          ],
          "internalType": "struct FundingCycleProperties",
          "name": "_properties",
          "type": "tuple"
        },
        {
          "internalType": "uint256",
          "name": "_metadata",
          "type": "uint256"
        },
        {
          "internalType": "uint256",
          "name": "_fee",
          "type": "uint256"
        },
        {
          "internalType": "bool",
          "name": "_configureActiveFundingCycle",
          "type": "bool"
        }
      ],
      "name": "configure",
      "outputs": [
        {
          "components": [
            {
              "internalType": "uint256",
              "name": "id",
              "type": "uint256"
            },
            {
              "internalType": "uint256",
              "name": "projectId",
              "type": "uint256"
            },
            {
              "internalType": "uint256",
              "name": "number",
              "type": "uint256"
            },
            {
              "internalType": "uint256",
              "name": "basedOn",
              "type": "uint256"
            },
            {
              "internalType": "uint256",
              "name": "configured",
              "type": "uint256"
            },
            {
              "internalType": "uint256",
              "name": "cycleLimit",
              "type": "uint256"
            },
            {
              "internalType": "uint256",
              "name": "weight",
              "type": "uint256"
            },
            {
              "internalType": "contract IFundingCycleBallot",
              "name": "ballot",
              "type": "address"
            },
            {
              "internalType": "uint256",
              "name": "start",
              "type": "uint256"
            },
            {
              "internalType": "uint256",
              "name": "duration",
              "type": "uint256"
            },
            {
              "internalType": "uint256",
              "name": "target",
              "type": "uint256"
            },
            {
              "internalType": "uint256",
              "name": "currency",
              "type": "uint256"
            },
            {
              "internalType": "uint256",
              "name": "fee",
              "type": "uint256"
            },
            {
              "internalType": "uint256",
              "name": "discountRate",
              "type": "uint256"
            },
            {
              "internalType": "uint256",
              "name": "tapped",
              "type": "uint256"
            },
            {
              "internalType": "uint256",
              "name": "metadata",
              "type": "uint256"
            }
          ],
          "internalType": "struct FundingCycle",
          "name": "fundingCycle",
          "type": "tuple"
        }
      ],
      "stateMutability": "nonpayable",
      "type": "function"
    },
    {
      "inputs": [],
      "name": "count",
      "outputs": [
        {
          "internalType": "uint256",
          "name": "",
          "type": "uint256"
        }
      ],
      "stateMutability": "view",
      "type": "function"
    },
    {
      "inputs": [
        {
          "internalType": "uint256",
          "name": "_projectId",
          "type": "uint256"
        }
      ],
      "name": "currentBallotStateOf",
      "outputs": [
        {
          "internalType": "enum BallotState",
          "name": "",
          "type": "uint8"
        }
      ],
      "stateMutability": "view",
      "type": "function"
    },
    {
      "inputs": [
        {
          "internalType": "uint256",
          "name": "_projectId",
          "type": "uint256"
        }
      ],
      "name": "currentOf",
      "outputs": [
        {
          "components": [
            {
              "internalType": "uint256",
              "name": "id",
              "type": "uint256"
            },
            {
              "internalType": "uint256",
              "name": "projectId",
              "type": "uint256"
            },
            {
              "internalType": "uint256",
              "name": "number",
              "type": "uint256"
            },
            {
              "internalType": "uint256",
              "name": "basedOn",
              "type": "uint256"
            },
            {
              "internalType": "uint256",
              "name": "configured",
              "type": "uint256"
            },
            {
              "internalType": "uint256",
              "name": "cycleLimit",
              "type": "uint256"
            },
            {
              "internalType": "uint256",
              "name": "weight",
              "type": "uint256"
            },
            {
              "internalType": "contract IFundingCycleBallot",
              "name": "ballot",
              "type": "address"
            },
            {
              "internalType": "uint256",
              "name": "start",
              "type": "uint256"
            },
            {
              "internalType": "uint256",
              "name": "duration",
              "type": "uint256"
            },
            {
              "internalType": "uint256",
              "name": "target",
              "type": "uint256"
            },
            {
              "internalType": "uint256",
              "name": "currency",
              "type": "uint256"
            },
            {
              "internalType": "uint256",
              "name": "fee",
              "type": "uint256"
            },
            {
              "internalType": "uint256",
              "name": "discountRate",
              "type": "uint256"
            },
            {
              "internalType": "uint256",
              "name": "tapped",
              "type": "uint256"
            },
            {
              "internalType": "uint256",
              "name": "metadata",
              "type": "uint256"
            }
          ],
          "internalType": "struct FundingCycle",
          "name": "fundingCycle",
          "type": "tuple"
        }
      ],
      "stateMutability": "view",
      "type": "function"
    },
    {
      "inputs": [
        {
          "internalType": "uint256",
          "name": "_fundingCycleId",
          "type": "uint256"
        }
      ],
      "name": "get",
      "outputs": [
        {
          "components": [
            {
              "internalType": "uint256",
              "name": "id",
              "type": "uint256"
            },
            {
              "internalType": "uint256",
              "name": "projectId",
              "type": "uint256"
            },
            {
              "internalType": "uint256",
              "name": "number",
              "type": "uint256"
            },
            {
              "internalType": "uint256",
              "name": "basedOn",
              "type": "uint256"
            },
            {
              "internalType": "uint256",
              "name": "configured",
              "type": "uint256"
            },
            {
              "internalType": "uint256",
              "name": "cycleLimit",
              "type": "uint256"
            },
            {
              "internalType": "uint256",
              "name": "weight",
              "type": "uint256"
            },
            {
              "internalType": "contract IFundingCycleBallot",
              "name": "ballot",
              "type": "address"
            },
            {
              "internalType": "uint256",
              "name": "start",
              "type": "uint256"
            },
            {
              "internalType": "uint256",
              "name": "duration",
              "type": "uint256"
            },
            {
              "internalType": "uint256",
              "name": "target",
              "type": "uint256"
            },
            {
              "internalType": "uint256",
              "name": "currency",
              "type": "uint256"
            },
            {
              "internalType": "uint256",
              "name": "fee",
              "type": "uint256"
            },
            {
              "internalType": "uint256",
              "name": "discountRate",
              "type": "uint256"
            },
            {
              "internalType": "uint256",
              "name": "tapped",
              "type": "uint256"
            },
            {
              "internalType": "uint256",
              "name": "metadata",
              "type": "uint256"
            }
          ],
          "internalType": "struct FundingCycle",
          "name": "",
          "type": "tuple"
        }
      ],
      "stateMutability": "view",
      "type": "function"
    },
    {
      "inputs": [
        {
          "internalType": "uint256",
          "name": "",
          "type": "uint256"
        }
      ],
      "name": "latestIdOf",
      "outputs": [
        {
          "internalType": "uint256",
          "name": "",
          "type": "uint256"
        }
      ],
      "stateMutability": "view",
      "type": "function"
    },
    {
      "inputs": [
        {
          "internalType": "uint256",
          "name": "_projectId",
          "type": "uint256"
        }
      ],
      "name": "queuedOf",
      "outputs": [
        {
          "components": [
            {
              "internalType": "uint256",
              "name": "id",
              "type": "uint256"
            },
            {
              "internalType": "uint256",
              "name": "projectId",
              "type": "uint256"
            },
            {
              "internalType": "uint256",
              "name": "number",
              "type": "uint256"
            },
            {
              "internalType": "uint256",
              "name": "basedOn",
              "type": "uint256"
            },
            {
              "internalType": "uint256",
              "name": "configured",
              "type": "uint256"
            },
            {
              "internalType": "uint256",
              "name": "cycleLimit",
              "type": "uint256"
            },
            {
              "internalType": "uint256",
              "name": "weight",
              "type": "uint256"
            },
            {
              "internalType": "contract IFundingCycleBallot",
              "name": "ballot",
              "type": "address"
            },
            {
              "internalType": "uint256",
              "name": "start",
              "type": "uint256"
            },
            {
              "internalType": "uint256",
              "name": "duration",
              "type": "uint256"
            },
            {
              "internalType": "uint256",
              "name": "target",
              "type": "uint256"
            },
            {
              "internalType": "uint256",
              "name": "currency",
              "type": "uint256"
            },
            {
              "internalType": "uint256",
              "name": "fee",
              "type": "uint256"
            },
            {
              "internalType": "uint256",
              "name": "discountRate",
              "type": "uint256"
            },
            {
              "internalType": "uint256",
              "name": "tapped",
              "type": "uint256"
            },
            {
              "internalType": "uint256",
              "name": "metadata",
              "type": "uint256"
            }
          ],
          "internalType": "struct FundingCycle",
          "name": "",
          "type": "tuple"
        }
      ],
      "stateMutability": "view",
      "type": "function"
    },
    {
      "inputs": [
        {
          "internalType": "uint256",
          "name": "_projectId",
          "type": "uint256"
        },
        {
          "internalType": "uint256",
          "name": "_amount",
          "type": "uint256"
        }
      ],
      "name": "tap",
      "outputs": [
        {
          "components": [
            {
              "internalType": "uint256",
              "name": "id",
              "type": "uint256"
            },
            {
              "internalType": "uint256",
              "name": "projectId",
              "type": "uint256"
            },
            {
              "internalType": "uint256",
              "name": "number",
              "type": "uint256"
            },
            {
              "internalType": "uint256",
              "name": "basedOn",
              "type": "uint256"
            },
            {
              "internalType": "uint256",
              "name": "configured",
              "type": "uint256"
            },
            {
              "internalType": "uint256",
              "name": "cycleLimit",
              "type": "uint256"
            },
            {
              "internalType": "uint256",
              "name": "weight",
              "type": "uint256"
            },
            {
              "internalType": "contract IFundingCycleBallot",
              "name": "ballot",
              "type": "address"
            },
            {
              "internalType": "uint256",
              "name": "start",
              "type": "uint256"
            },
            {
              "internalType": "uint256",
              "name": "duration",
              "type": "uint256"
            },
            {
              "internalType": "uint256",
              "name": "target",
              "type": "uint256"
            },
            {
              "internalType": "uint256",
              "name": "currency",
              "type": "uint256"
            },
            {
              "internalType": "uint256",
              "name": "fee",
              "type": "uint256"
            },
            {
              "internalType": "uint256",
              "name": "discountRate",
              "type": "uint256"
            },
            {
              "internalType": "uint256",
              "name": "tapped",
              "type": "uint256"
            },
            {
              "internalType": "uint256",
              "name": "metadata",
              "type": "uint256"
            }
          ],
          "internalType": "struct FundingCycle",
          "name": "fundingCycle",
          "type": "tuple"
        }
      ],
      "stateMutability": "nonpayable",
      "type": "function"
    },
    {
      "inputs": [],
      "name": "terminalDirectory",
      "outputs": [
        {
          "internalType": "contract ITerminalDirectory",
          "name": "",
          "type": "address"
        }
      ],
      "stateMutability": "view",
      "type": "function"
    }
  ],
  "transactionHash": "0x070ad474c1b5ee34ad5964a59c1154f5de8c747fea7c0c9804469f307bb070e4",
  "args": [
    "0xD4d698441EEC2A7f1408679811DfA85fC6B18546"
  ],
  "solcInputHash": "ccb7a7bd8fb2979a6e849901853bc8b7",
  "bytecode": "0x60a060405260006006553480156200001657600080fd5b50604051620029623803806200296283398101604081905262000039916200004f565b60601b6001600160601b03191660805262000081565b6000602082840312156200006257600080fd5b81516001600160a01b03811681146200007a57600080fd5b9392505050565b60805160601c6128b4620000ae60003960008181610135015281816102d9015261090d01526128b46000f3fe608060405234801561001057600080fd5b50600436106100c95760003560e01c80638a1b0eb411610081578063cdce9b2b1161005b578063cdce9b2b146101c2578063d614edc5146101e2578063e16fd0ec146101ea57600080fd5b80638a1b0eb41461017c5780639507d39a1461018f578063c55f571c146101a257600080fd5b806343a266c2116100b257806343a266c21461010a5780635c5500781461011d5780636abcf8e31461013057600080fd5b806306661abd146100ce5780631ee2c9bf146100ea575b600080fd5b6100d760065481565b6040519081526020015b60405180910390f35b6100fd6100f836600461254c565b6101fb565b6040516100e191906125af565b6100fd610118366004612494565b6104de565b6100fd61012b366004612494565b6106cc565b6101577f000000000000000000000000000000000000000000000000000000000000000081565b60405173ffffffffffffffffffffffffffffffffffffffff90911681526020016100e1565b6100fd61018a3660046124c6565b61082f565b6100fd61019d366004612494565b610d52565b6101b56101b0366004612494565b610e4f565b6040516100e1919061256e565b6100d76101d0366004612494565b60056020526000908152604090205481565b6100d7602081565b6100d769d3c21bcecceda100000081565b61029160405180610200016040528060008152602001600081526020016000815260200160008152602001600081526020016000815260200160008152602001600073ffffffffffffffffffffffffffffffffffffffff16815260200160008152602001600081526020016000815260200160008152602001600081526020016000815260200160008152602001600081525090565b6040517f4fe0eced000000000000000000000000000000000000000000000000000000008152600481018490528390339073ffffffffffffffffffffffffffffffffffffffff7f00000000000000000000000000000000000000000000000000000000000000001690634fe0eced9060240160206040518083038186803b15801561031b57600080fd5b505afa15801561032f573d6000803e3d6000fd5b505050506040513d601f19601f820116820180604052508101906103539190612456565b73ffffffffffffffffffffffffffffffffffffffff16146103bb5760405162461bcd60e51b815260206004820152601d60248201527f5465726d696e616c5574696c6974793a20554e415554484f52495a454400000060448201526064015b60405180910390fd5b60006103c685610f15565b600081815260046020908152604080832054600390925290912054919250906103f0908290612768565b8511156104655760405162461bcd60e51b815260206004820152602660248201527f46756e64696e674379636c65733a3a7461703a20494e53554646494349454e5460448201527f5f46554e4453000000000000000000000000000000000000000000000000000060648201526084016103b2565b600061047186836126ff565b600084815260046020908152604091829020839055815189815290810183905233818301529051919250889185917fb16453f203e70875883e4ba9c674627ad465d6eb3102bbcad8aa467c0da75fd8919081900360600190a36104d3836111a0565b979650505050505050565b61057460405180610200016040528060008152602001600081526020016000815260200160008152602001600081526020016000815260200160008152602001600073ffffffffffffffffffffffffffffffffffffffff16815260200160008152602001600081526020016000815260200160008152602001600081526020016000815260200160008152602001600081525090565b6000828152600560205260409020546105975761059160006111a0565b92915050565b60006105a283611351565b9050806105b5576105b283611444565b90505b61064b60405180610200016040528060008152602001600081526020016000815260200160008152602001600081526020016000815260200160008152602001600073ffffffffffffffffffffffffffffffffffffffff16815260200160008152602001600081526020016000815260200160008152602001600081526020016000815260200160008152602001600081525090565b811561068d5761065a826111a0565b90504281610100015111158015610675575061067581611488565b15610681579392505050565b8060600151915061069f565b60008481526005602052604090205491505b816106b6576106ae60006111a0565b949350505050565b6106bf826111a0565b90506106ae8160016114ba565b61076260405180610200016040528060008152602001600081526020016000815260200160008152602001600081526020016000815260200160008152602001600073ffffffffffffffffffffffffffffffffffffffff16815260200160008152602001600081526020016000815260200160008152602001600081526020016000815260200160008152602001600081525090565b60008281526005602052604090205461077f5761059160006111a0565b600061078a83611444565b905080156107a25761079b816111a0565b9392505050565b6107ab83611351565b905080156107fc5760006107be826111a0565b9050806101200151600014156107d8576106ae60006111a0565b6107e181611488565b156107f1576106ae8160006114ba565b60600151905061080d565b506000828152600560205260409020545b8061081c5761079b60006111a0565b61079b610828826111a0565b60006114ba565b6108c560405180610200016040528060008152602001600081526020016000815260200160008152602001600081526020016000815260200160008152602001600073ffffffffffffffffffffffffffffffffffffffff16815260200160008152602001600081526020016000815260200160008152602001600081526020016000815260200160008152602001600081525090565b6040517f4fe0eced000000000000000000000000000000000000000000000000000000008152600481018790528690339073ffffffffffffffffffffffffffffffffffffffff7f00000000000000000000000000000000000000000000000000000000000000001690634fe0eced9060240160206040518083038186803b15801561094f57600080fd5b505afa158015610963573d6000803e3d6000fd5b505050506040513d601f19601f820116820180604052508101906109879190612456565b73ffffffffffffffffffffffffffffffffffffffff16146109ea5760405162461bcd60e51b815260206004820152601d60248201527f5465726d696e616c5574696c6974793a20554e415554484f52495a454400000060448201526064016103b2565b61ffff60408701351115610a665760405162461bcd60e51b815260206004820152602660248201527f46756e64696e674379636c65733a3a636f6e6669677572653a204241445f445560448201527f524154494f4e000000000000000000000000000000000000000000000000000060648201526084016103b2565b602086606001351115610ae15760405162461bcd60e51b815260206004820152602960248201527f46756e64696e674379636c65733a3a636f6e6669677572653a204241445f435960448201527f434c455f4c494d4954000000000000000000000000000000000000000000000060648201526084016103b2565b60c986608001351115610b5c5760405162461bcd60e51b815260206004820152602b60248201527f46756e64696e674379636c65733a3a636f6e6669677572653a204241445f444960448201527f53434f554e545f5241544500000000000000000000000000000000000000000060648201526084016103b2565b60ff60208701351115610bd75760405162461bcd60e51b815260206004820152602660248201527f46756e64696e674379636c65733a3a636f6e6669677572653a204241445f435560448201527f5252454e4359000000000000000000000000000000000000000000000000000060648201526084016103b2565b60c8841115610c4e5760405162461bcd60e51b815260206004820152602160248201527f46756e64696e674379636c65733a3a636f6e6669677572653a204241445f464560448201527f450000000000000000000000000000000000000000000000000000000000000060648201526084016103b2565b426000610c5c89838761175e565b9050610cdb818360608b0135610c7860c08d0160a08e01612439565b6000938452602084815260409485902073ffffffffffffffffffffffffffffffffffffffff9290921660a09490941b93909317938d013560d01b93909317918c013560e01b9190911760e88a901b1760808c013560f01b1760f89190911b179055565b60008181526003602090815260408083208b35905560029091529081902088905551899082907f738f28809aeff63352b71b8dc894c5e51b2758e1ff1d6b00b50f8dc10916000890610d349086908d908d90339061267f565b60405180910390a3610d45816111a0565b9998505050505050505050565b610de860405180610200016040528060008152602001600081526020016000815260200160008152602001600081526020016000815260200160008152602001600073ffffffffffffffffffffffffffffffffffffffff16815260200160008152602001600081526020016000815260200160008152602001600081526020016000815260200160008152602001600081525090565b600082118015610dfa57506006548211155b610e465760405162461bcd60e51b815260206004820152601c60248201527f46756e64696e674379636c653a3a6765743a204e4f545f464f554e440000000060448201526064016103b2565b610591826111a0565b600081815260056020526040812054610ed05760405162461bcd60e51b815260206004820152602e60248201527f46756e64696e674379636c65733a3a63757272656e7442616c6c6f745374617460448201527f654f663a204e4f545f464f554e4400000000000000000000000000000000000060648201526084016103b2565b60008281526005602052604081205490610ee9826111a0565b9050806060015160001415610f02575060039392505050565b6106ae8282608001518360600151611935565b6000610f2082611351565b905080610f3357610f3082611444565b90505b610fc960405180610200016040528060008152602001600081526020016000815260200160008152602001600081526020016000815260200160008152602001600073ffffffffffffffffffffffffffffffffffffffff16815260200160008152602001600081526020016000815260200160008152602001600081526020016000815260200160008152602001600081525090565b811561100a57610fd8826111a0565b90504281610100015111158015610ff35750610ff381611488565b15610ffe5750919050565b8060600151915061101c565b60008381526005602052604090205491505b600082116110925760405162461bcd60e51b815260206004820152602360248201527f46756e64696e674379636c65733a3a5f7461707061626c653a204e4f545f464f60448201527f554e44000000000000000000000000000000000000000000000000000000000060648201526084016103b2565b61109b826111a0565b905060c9816101a00151106111185760405162461bcd60e51b815260206004820152602760248201527f46756e64696e674379636c65733a3a5f7461707061626c653a204e4f4e5f524560448201527f43555252494e470000000000000000000000000000000000000000000000000060648201526084016103b2565b60006201518082610120015161112e919061272b565b82610100015161113e91906126ff565b9050600082610120015160001461117c5762015180836101200151611163919061272b565b61116d8342612768565b61117791906127b8565b61117f565b60005b905061119785846111908442612768565b6001611a42565b95945050505050565b61123660405180610200016040528060008152602001600081526020016000815260200160008152602001600081526020016000815260200160008152602001600073ffffffffffffffffffffffffffffffffffffffff16815260200160008152602001600081526020016000815260200160008152602001600081526020016000815260200160008152602001600081525090565b8161124057919050565b81815260008281526001602090815260408083205469ffffffffffffffffffff811660c086015266ffffffffffffff605082901c168386015265ffffffffffff608882901c8116606087015260b882901c811661010087015260e891821c838701528685528484528285205473ffffffffffffffffffffffffffffffffffffffff811660e08089019190915260a082811c909316608089015261ffff60d083901c1661012089015260ff9082901c81166101608901529281901c831661018088015260f081901c9092166101a087015260f89190911c90850152848352600382528083205461014085015284835260048252808320546101c08501529382526002905291909120546101e082015290565b6000818152600560205260409020548061136d57506000919050565b6000611378826111a0565b905060008161012001511180156113b257506201518081610120015161139e919061272b565b8161010001516113ae91906126ff565b4210155b156113c05750600092915050565b606081015115806113d657508061010001514210155b156113e15750919050565b60006113f082606001516111a0565b9050600081610120015111801561142a575062015180816101200151611416919061272b565b81610100015161142691906126ff565b4210155b15611439575060009392505050565b506060015192915050565b6000818152600560205260409020548061146057506000919050565b600061146b826111a0565b905080610100015142106114825750600092915050565b50919050565b6000806114a2836000015184608001518560600151611935565b60038111156114b3576114b361282a565b1492915050565b61155060405180610200016040528060008152602001600081526020016000815260200160008152602001600081526020016000815260200160008152602001600073ffffffffffffffffffffffffffffffffffffffff16815260200160008152602001600081526020016000815260200160008152602001600081526020016000815260200160008152602001600081525090565b826101a0015160c9141561156f5761156860006111a0565b9050610591565b6000808460a0015111611582578361158b565b61158b84611b45565b905060008380156115a157506000856101200151115b15611654576000620151808661012001518760a001516115c1919061272b565b6115cb919061272b565b8661010001516115db91906126ff565b905060008660a001511180156115f057504281105b15611637576101208301511561162d5762015180836101200151611614919061272b565b61161e8242612768565b61162891906127b8565b611630565b60005b915061164e565b6201518086610120015161164b919061272b565b91505b50611658565b5060005b600061166e86846116698542612768565b611c12565b9050600061167c8783611d48565b90506000811561168c578761168e565b845b905060405180610200016040528060008152602001826020015181526020016116b88a8887611dc5565b815282516020820152608080840151604083015260608201859052016116df8a8887611ef9565b81526020018260e0015173ffffffffffffffffffffffffffffffffffffffff1681526020018481526020018261012001518152602001826101400151815260200182610160015181526020018261018001518152602001826101a00151815260200160008152602001826101e001518152509550505050505092915050565b60008381526005602052604081205461178e576117878461177f60006111a0565b426000611a42565b905061079b565b61179784611444565b905080156117d45760006117b66117ad836111a0565b606001516111a0565b90506117ce82826117c784886120da565b60006121a9565b5061079b565b6117dd84611351565b90508015611816576117ee8161231d565b611806576117fb816111a0565b606001519050611827565b81156118115761079b565b611827565b506000838152600560205260409020545b600080611833836111a0565b905060c9816101a00151106118b05760405162461bcd60e51b815260206004820152602b60248201527f46756e64696e674379636c65733a3a5f636f6e666967757261626c653a204e4f60448201527f4e5f524543555252494e4700000000000000000000000000000000000000000060648201526084016103b2565b8315611911576101208101516118cd57806101000151915061191e565b6000620151808261012001516118e3919061272b565b6101008301516118f39042612768565b6118fd91906127b8565b90506119098142612768565b92505061191e565b61191b81866120da565b91505b61192b8682846000611a42565b9695505050505050565b6000816119445750600061079b565b600061194f836111a0565b9050838160800151141561196757600091505061079b565b60e081015173ffffffffffffffffffffffffffffffffffffffff1615611a375760e08101516040517f4d393dc9000000000000000000000000000000000000000000000000000000008152600481018790526024810186905273ffffffffffffffffffffffffffffffffffffffff90911690634d393dc99060440160206040518083038186803b1580156119fa57600080fd5b505afa158015611a0e573d6000803e3d6000fd5b505050506040513d601f19601f82011682018060405250810190611a329190612473565b611197565b600095945050505050565b6006805460009182611a538361277f565b90915550506006546000868152600560205260409020558351611ab25760065460009081526001602052604090207d0100000000000000000000000000000000000000d3c21bcecceda1000000605087901b4260b81b17179055611ac0565b611ac06006548585856121a9565b6000611acd6006546111a0565b905080602001516006547f3430b8834fcab595f0e68ee663700fdf7bc5e4eaf56d4eec6b0c2fb911b4afae836040015184606001518560c00151866101000151604051611b33949392919093845260208401929092526040830152606082015260800190565b60405180910390a35195945050505050565b611bdb60405180610200016040528060008152602001600081526020016000815260200160008152602001600081526020016000815260200160008152602001600073ffffffffffffffffffffffffffffffffffffffff16815260200160008152602001600081526020016000815260200160008152602001600081526020016000815260200160008152602001600081525090565b6060820151611be8575090565b611bf582606001516111a0565b90508060a0015160001415611c0957919050565b61059181611b45565b600083610120015160001415611c2957508061079b565b600062015180856101200151611c3f919061272b565b9050600081866101000151611c5491906126ff565b9050838110611c6657915061079b9050565b60a08601516000611c77828561272b565b886101000151611c8791906126ff565b8611611ca95783611c988488612768565b611ca291906127b8565b9050611d17565b61012087015115611cfb5762015180876101200151611cc8919061272b565b611cd2838661272b565b896101000151611ce291906126ff565b611cec9088612768565b611cf691906127b8565b611cfe565b60005b905062015180876101200151611d14919061272b565b93505b611d218187612768565b94505b84861115611d3d57611d3684866126ff565b9450611d24565b505050509392505050565b600060018360a00151111580611d615750610120830151155b15611d6e57506000610591565b600062015180846101200151611d84919061272b565b610100850151611d949085612768565b611d9e9190612717565b90508360a001518110611db5576000915050610591565b808460a001516106ae9190612768565b600083610120015160001415611de55760408401516117879060016126ff565b600084610100015183611df89190612768565b905060008560a00151600014611e305762015180866101200151611e1c919061272b565b8660a00151611e2b919061272b565b611e33565b60005b9050801580611e4157508181115b15611e7a5762015180866101200151611e5a919061272b565b611e649083612717565b8660400151611e7391906126ff565b9250611ef0565b62015180866101200151611e8e919061272b565b611e989082612717565b8660400151611ea791906126ff565b9250846101200151600014611ee35762015180856101200151611eca919061272b565b611ed48284612768565b611ede9190612717565b611ee6565b60005b61192b90846126ff565b50509392505050565b600083610120015160001415611f2c576117878460c00151856101a001516103e8611f249190612768565b6103e8612334565b600084610100015183611f3f9190612768565b905060008560a0015160001480611f5857506060860151155b611f845762015180866101200151611f70919061272b565b8660a00151611f7f919061272b565b611f87565b60005b60c087015193509050801580611f9c57508181115b15612011576101a0860151611fb257505061079b565b600062015180876101200151611fc8919061272b565b611fd29084612717565b905060005b8181101561200a57611ff685896101a001516103e8611f249190612768565b9450806120028161277f565b915050611fd7565b5050611ef0565b6101a0860151156120585760005b8660a001518110156120565761204284886101a001516103e8611f249190612768565b93508061204e8161277f565b91505061201f565b505b6101a085015115611ef057600085610120015160001461209f5762015180866101200151612086919061272b565b6120908385612768565b61209a9190612717565b6120a2565b60005b905060005b81811015611d3d576120c685886101a001516103e8611f249190612768565b9450806120d28161277f565b9150506120a7565b60e0820151600090819073ffffffffffffffffffffffffffffffffffffffff16612105576000612191565b8360e0015173ffffffffffffffffffffffffffffffffffffffff16630fb5a6b46040518163ffffffff1660e01b815260040160206040518083038186803b15801561214f57600080fd5b505afa158015612163573d6000803e3d6000fd5b505050506040513d601f19601f8201168201806040525081019061218791906124ad565b61219190846126ff565b90508042116121a057806106ae565b50429392505050565b6000808460a00151116121bc57836121c5565b6121c584611b45565b905060006121d4858386611c12565b905060006121e3868484611ef9565b905060006121f2878585611dc5565b905084156122dc5760006122068885611d48565b9050600081156122165788612218565b855b90506122a58a8260800151848460e00151856101200151866101600151876101800151886101a0015160009788526020889052604090972060f89590951b60f09790971b60e89190911b60e09290921b60d09390931b60a09690961b73ffffffffffffffffffffffffffffffffffffffff9094169390931794909417179290921791909117919091179055565b8051600090815260026020908152604080832054600680548552828520919091559351835260039091528082205492548252902055505b602080880151885160008b81526001909352604090922060509190911b841760889290921b9190911760b885901b1760e883901b1790555050505050505050565b600080612329836111a0565b905061079b81611488565b600080807fffffffffffffffffffffffffffffffffffffffffffffffffffffffffffffffff858709858702925082811083820303915050806000141561238d57838281612383576123836127fb565b049250505061079b565b8381106123d0576040517f773cc18c00000000000000000000000000000000000000000000000000000000815260048101829052602481018590526044016103b2565b60008486880960026001871981018816978890046003810283188082028403028082028403028082028403028082028403028082028403029081029092039091026000889003889004909101858311909403939093029303949094049190911702949350505050565b60006020828403121561244b57600080fd5b813561079b81612859565b60006020828403121561246857600080fd5b815161079b81612859565b60006020828403121561248557600080fd5b81516004811061079b57600080fd5b6000602082840312156124a657600080fd5b5035919050565b6000602082840312156124bf57600080fd5b5051919050565b60008060008060008587036101408112156124e057600080fd5b8635955060c07fffffffffffffffffffffffffffffffffffffffffffffffffffffffffffffffe08201121561251457600080fd5b5060208601935060e086013592506101008601359150610120860135801515811461253e57600080fd5b809150509295509295909350565b6000806040838503121561255f57600080fd5b50508035926020909101359150565b60208101600483106125a9577f4e487b7100000000000000000000000000000000000000000000000000000000600052602160045260246000fd5b91905290565b600061020082019050825182526020830151602083015260408301516040830152606083015160608301526080830151608083015260a083015160a083015260c083015160c083015260e083015161261f60e084018273ffffffffffffffffffffffffffffffffffffffff169052565b50610100838101519083015261012080840151908301526101408084015190830152610160808401519083015261018080840151908301526101a080840151908301526101c080840151908301526101e092830151929091019190915290565b60006101208201905085825284356020830152602085013560408301526040850135606083015260608501356080830152608085013560a083015260a08501356126c881612859565b73ffffffffffffffffffffffffffffffffffffffff80821660c08501528560e0850152808516610100850152505095945050505050565b60008219821115612712576127126127cc565b500190565b600082612726576127266127fb565b500490565b6000817fffffffffffffffffffffffffffffffffffffffffffffffffffffffffffffffff0483118215151615612763576127636127cc565b500290565b60008282101561277a5761277a6127cc565b500390565b60007fffffffffffffffffffffffffffffffffffffffffffffffffffffffffffffffff8214156127b1576127b16127cc565b5060010190565b6000826127c7576127c76127fb565b500690565b7f4e487b7100000000000000000000000000000000000000000000000000000000600052601160045260246000fd5b7f4e487b7100000000000000000000000000000000000000000000000000000000600052601260045260246000fd5b7f4e487b7100000000000000000000000000000000000000000000000000000000600052602160045260246000fd5b73ffffffffffffffffffffffffffffffffffffffff8116811461287b57600080fd5b5056fea2646970667358221220df18606a101665fcf0ec539f627685335c7f38a56866537f65c99b7f2562e31264736f6c63430008060033",
  "devdoc": {
    "kind": "dev",
    "methods": {
      "configure(uint256,(uint256,uint256,uint256,uint256,uint256,address),uint256,uint256,bool)": {
        "details": "Only a project's current terminal can configure its funding cycles._properties.target The amount that the project wants to receive in each funding cycle. 18 decimals._properties.currency The currency of the `_target`. Send 0 for ETH or 1 for USD._properties.duration The duration of the funding cycle for which the `_target` amount is needed. Measured in days.  Set to 0 for no expiry and to be able to reconfigure anytime._cycleLimit The number of cycles that this configuration should last for before going back to the last permanent. This does nothing for a project's first funding cycle._properties.discountRate A number from 0-200 indicating how valuable a contribution to this funding cycle is compared to previous funding cycles. If it's 0, each funding cycle will have equal weight. If the number is 100, a contribution to the next funding cycle will only give you 90% of tickets given to a contribution of the same amount during the current funding cycle. If the number is 200, a contribution to the next funding cycle will only give you 80% of tickets given to a contribution of the same amoutn during the current funding cycle. If the number is 201, an non-recurring funding cycle will get made._ballot The new ballot that will be used to approve subsequent reconfigurations.",
        "params": {
          "_configureActiveFundingCycle": "If a funding cycle that has already started should be configurable.",
          "_fee": "The fee that this configuration will incure when tapping.",
          "_metadata": "Data to associate with this funding cycle configuration.",
          "_projectId": "The ID of the project being reconfigured.",
          "_properties": "The funding cycle configuration."
        },
        "returns": {
          "fundingCycle": "The funding cycle that the configuration will take effect during."
        }
      },
      "constructor": {
        "params": {
          "_terminalDirectory": "A directory of a project's current Candybox terminal to receive payments in."
        }
      },
      "currentBallotStateOf(uint256)": {
        "params": {
          "_projectId": "The ID of the project to check for a pending reconfiguration."
        },
        "returns": {
          "_0": "The current ballot's state."
        }
      },
      "currentOf(uint256)": {
        "details": " This runs very similar logic to `_tappable`.",
        "params": {
          "_projectId": "The ID of the project being looked through."
        },
        "returns": {
          "fundingCycle": "The current funding cycle."
        }
      },
      "get(uint256)": {
        "params": {
          "_fundingCycleId": "The ID of the funding cycle to get."
        },
        "returns": {
          "_0": "_fundingCycle The funding cycle."
        }
      },
      "queuedOf(uint256)": {
        "details": " This runs roughly similar logic to `_configurable`.",
        "params": {
          "_projectId": "The ID of the project being looked through."
        },
        "returns": {
          "_0": "_fundingCycle The queued funding cycle."
        }
      },
      "tap(uint256,uint256)": {
        "details": "Only a project's current terminal can tap funds for its funding cycles.",
        "params": {
          "_amount": "The amount being tapped.",
          "_projectId": "The ID of the project being tapped."
        },
        "returns": {
          "fundingCycle": "The tapped funding cycle."
        }
      }
    },
    "stateVariables": {
      "count": {
        "details": "Funding cycles have IDs > 0."
      }
    },
    "version": 1
  },
  "userdoc": {
    "errors": {
      "PRBMath__MulDivOverflow(uint256,uint256)": [
        {
          "notice": "Emitted when the result overflows uint256."
        }
      ]
    },
    "kind": "user",
    "methods": {
      "BASE_WEIGHT()": {
        "notice": "The weight used for each project's first funding cycle."
      },
      "MAX_CYCLE_LIMIT()": {
        "notice": "The maximum value that a cycle limit can be set to."
      },
      "configure(uint256,(uint256,uint256,uint256,uint256,uint256,address),uint256,uint256,bool)": {
        "notice": " Configures the next eligible funding cycle for the specified project."
      },
      "count()": {
        "notice": "The total number of funding cycles created, which is used for issuing funding cycle IDs."
      },
      "currentBallotStateOf(uint256)": {
        "notice": " The currency ballot state of the project."
      },
      "currentOf(uint256)": {
        "notice": " The funding cycle that is currently active for the specified project."
      },
      "get(uint256)": {
        "notice": " Get the funding cycle with the given ID."
      },
      "latestIdOf(uint256)": {
        "notice": "The ID of the latest funding cycle for each project."
      },
      "queuedOf(uint256)": {
        "notice": " The funding cycle that's next up for a project, and therefor not currently accepting payments."
      },
      "tap(uint256,uint256)": {
        "notice": " Tap funds from a project's currently tappable funding cycle."
      },
      "terminalDirectory()": {
        "notice": "The direct deposit terminals."
      }
    },
    "notice": "Manage funding cycle configurations, accounting, and scheduling.",
    "version": 1
  },
  "storageLayout": {
    "storage": [
      {
        "astId": 4565,
        "contract": "contracts/FundingCycles.sol:FundingCycles",
        "label": "_packedConfigurationPropertiesOf",
        "offset": 0,
        "slot": "0",
        "type": "t_mapping(t_uint256,t_uint256)"
      },
      {
        "astId": 4569,
        "contract": "contracts/FundingCycles.sol:FundingCycles",
        "label": "_packedIntrinsicPropertiesOf",
        "offset": 0,
        "slot": "1",
        "type": "t_mapping(t_uint256,t_uint256)"
      },
      {
        "astId": 4573,
        "contract": "contracts/FundingCycles.sol:FundingCycles",
        "label": "_metadataOf",
        "offset": 0,
        "slot": "2",
        "type": "t_mapping(t_uint256,t_uint256)"
      },
      {
        "astId": 4577,
        "contract": "contracts/FundingCycles.sol:FundingCycles",
        "label": "_targetOf",
        "offset": 0,
        "slot": "3",
        "type": "t_mapping(t_uint256,t_uint256)"
      },
      {
        "astId": 4581,
        "contract": "contracts/FundingCycles.sol:FundingCycles",
        "label": "_tappedOf",
        "offset": 0,
        "slot": "4",
        "type": "t_mapping(t_uint256,t_uint256)"
      },
      {
        "astId": 4597,
        "contract": "contracts/FundingCycles.sol:FundingCycles",
        "label": "latestIdOf",
        "offset": 0,
        "slot": "5",
        "type": "t_mapping(t_uint256,t_uint256)"
      },
      {
        "astId": 4602,
        "contract": "contracts/FundingCycles.sol:FundingCycles",
        "label": "count",
        "offset": 0,
        "slot": "6",
        "type": "t_uint256"
      }
    ],
    "types": {
      "t_mapping(t_uint256,t_uint256)": {
        "encoding": "mapping",
        "key": "t_uint256",
        "label": "mapping(uint256 => uint256)",
        "numberOfBytes": "32",
        "value": "t_uint256"
      },
      "t_uint256": {
        "encoding": "inplace",
        "label": "uint256",
        "numberOfBytes": "32"
      }
    }
  }
}