{
  "address": "0x8c2439Eb3Be6d92A0E92D3625D19be2244a56Fe0",
  "abi": [
    {
      "inputs": [
        {
          "internalType": "contract ITerminalDirectory",
          "name": "_terminalDirectory",
          "type": "address"
        },
        {
          "internalType": "contract ITicketBooth",
          "name": "_ticketBooth",
          "type": "address"
        }
      ],
      "stateMutability": "nonpayable",
      "type": "constructor"
    },
    {
      "anonymous": false,
      "inputs": [
        {
          "indexed": true,
          "internalType": "uint256",
          "name": "projectId",
          "type": "uint256"
        },
        {
          "indexed": false,
          "internalType": "string",
          "name": "memo",
          "type": "string"
        },
        {
          "indexed": true,
          "internalType": "address",
          "name": "caller",
          "type": "address"
        }
      ],
      "name": "Deploy",
      "type": "event"
    },
    {
      "inputs": [
        {
          "internalType": "uint256",
          "name": "_projectId",
          "type": "uint256"
        }
      ],
      "name": "addressesOf",
      "outputs": [
        {
          "internalType": "contract IProxyPaymentAddress[]",
          "name": "",
          "type": "address[]"
        }
      ],
      "stateMutability": "view",
      "type": "function"
    },
    {
      "inputs": [
        {
          "internalType": "uint256",
          "name": "_projectId",
          "type": "uint256"
        },
        {
          "internalType": "string",
          "name": "_memo",
          "type": "string"
        }
      ],
      "name": "deploy",
      "outputs": [
        {
          "internalType": "address",
          "name": "",
          "type": "address"
        }
      ],
      "stateMutability": "nonpayable",
      "type": "function"
    },
    {
      "inputs": [],
      "name": "terminalDirectory",
      "outputs": [
        {
          "internalType": "contract ITerminalDirectory",
          "name": "",
          "type": "address"
        }
      ],
      "stateMutability": "view",
      "type": "function"
    },
    {
      "inputs": [],
      "name": "ticketBooth",
      "outputs": [
        {
          "internalType": "contract ITicketBooth",
          "name": "",
          "type": "address"
        }
      ],
      "stateMutability": "view",
      "type": "function"
    }
  ],
  "transactionHash": "0xc63b4cac60978a80807a5a18f704887ab6097480441a7d1c0ad3407deda90285",
  "args": [
    "0xD4d698441EEC2A7f1408679811DfA85fC6B18546",
    "0xFFFB3C2d3cFb43B61a04B5703692d21923f8558B"
  ],
  "solcInputHash": "ccb7a7bd8fb2979a6e849901853bc8b7",
  "bytecode": "0x60c060405234801561001057600080fd5b506040516115ef3803806115ef83398101604081905261002f9161004d565b6001600160601b0319606092831b8116608052911b1660a05261009f565b6000806040838503121561006057600080fd5b825161006b81610087565b602084015190925061007c81610087565b809150509250929050565b6001600160a01b038116811461009c57600080fd5b50565b60805160601c60a05160601c6115196100d66000396000818160cb0152610231015260008181607f015261021001526115196000f3fe608060405234801561001057600080fd5b506004361061004c5760003560e01c80634cbcdc23146100515780636abcf8e31461007a5780639b602d60146100c6578063ffbf2bd8146100ed575b600080fd5b61006461005f3660046103b5565b610100565b6040516100719190610512565b60405180910390f35b6100a17f000000000000000000000000000000000000000000000000000000000000000081565b60405173ffffffffffffffffffffffffffffffffffffffff9091168152602001610071565b6100a17f000000000000000000000000000000000000000000000000000000000000000081565b6100a16100fb3660046103ce565b610177565b6000818152602081815260409182902080548351818402810184019094528084526060939283018282801561016b57602002820191906000526020600020905b815473ffffffffffffffffffffffffffffffffffffffff168152600190910190602001808311610140575b50505050509050919050565b600080831161020c576040517f08c379a000000000000000000000000000000000000000000000000000000000815260206004820152603060248201527f50726f78795061796d656e74416464726573734d616e616765723a3a6465706c60448201527f6f793a205a45524f5f50524f4a45435400000000000000000000000000000000606482015260840160405180910390fd5b60007f00000000000000000000000000000000000000000000000000000000000000007f0000000000000000000000000000000000000000000000000000000000000000858560405161025e906103a8565b61026b949392919061056c565b604051809103906000f080158015610287573d6000803e3d6000fd5b506040517ff2fde38b00000000000000000000000000000000000000000000000000000000815233600482015290915073ffffffffffffffffffffffffffffffffffffffff82169063f2fde38b90602401600060405180830381600087803b1580156102f257600080fd5b505af1158015610306573d6000803e3d6000fd5b5050506000858152602081815260408083208054600181018255908452919092200180547fffffffffffffffffffffffff00000000000000000000000000000000000000001673ffffffffffffffffffffffffffffffffffffffff85161790555133915085907fb24384e68b59e576d1779bfdf48410e953d8c8064ed33288f28b16c7c6f78cf8906103999087906105b5565b60405180910390a39392505050565b610ee5806105ff83390190565b6000602082840312156103c757600080fd5b5035919050565b600080604083850312156103e157600080fd5b82359150602083013567ffffffffffffffff8082111561040057600080fd5b818501915085601f83011261041457600080fd5b813581811115610426576104266105cf565b604051601f82017fffffffffffffffffffffffffffffffffffffffffffffffffffffffffffffffe0908116603f0116810190838211818310171561046c5761046c6105cf565b8160405282815288602084870101111561048557600080fd5b8260208601602083013760006020848301015280955050505050509250929050565b6000815180845260005b818110156104cd576020818501810151868301820152016104b1565b818111156104df576000602083870101525b50601f017fffffffffffffffffffffffffffffffffffffffffffffffffffffffffffffffe0169290920160200192915050565b6020808252825182820181905260009190848201906040850190845b8181101561056057835173ffffffffffffffffffffffffffffffffffffffff168352928401929184019160010161052e565b50909695505050505050565b600073ffffffffffffffffffffffffffffffffffffffff8087168352808616602084015250836040830152608060608301526105ab60808301846104a7565b9695505050505050565b6020815260006105c860208301846104a7565b9392505050565b7f4e487b7100000000000000000000000000000000000000000000000000000000600052604160045260246000fdfe60e06040523480156200001157600080fd5b5060405162000ee538038062000ee5833981016040819052620000349162000174565b6200003f336200007e565b6001600160601b0319606085811b821660805284901b1660a05260c0829052805162000073906001906020840190620000ce565b5050505050620002f2565b600080546001600160a01b038381166001600160a01b0319831681178455604051919092169283917f8be0079c531659141344cd1fd0a4f28419497f9722a3daafe3b4186f6b6457e09190a35050565b828054620000dc9062000286565b90600052602060002090601f0160209004810192826200010057600085556200014b565b82601f106200011b57805160ff19168380011785556200014b565b828001600101855582156200014b579182015b828111156200014b5782518255916020019190600101906200012e565b50620001599291506200015d565b5090565b5b808211156200015957600081556001016200015e565b600080600080608085870312156200018b57600080fd5b84516200019881620002d9565b80945050602080860151620001ad81620002d9565b6040870151606088015191955093506001600160401b0380821115620001d257600080fd5b818801915088601f830112620001e757600080fd5b815181811115620001fc57620001fc620002c3565b604051601f8201601f19908116603f01168101908382118183101715620002275762000227620002c3565b816040528281528b868487010111156200024057600080fd5b600093505b8284101562000264578484018601518185018701529285019262000245565b82841115620002765760008684830101525b989b979a50959850505050505050565b600181811c908216806200029b57607f821691505b60208210811415620002bd57634e487b7160e01b600052602260045260246000fd5b50919050565b634e487b7160e01b600052604160045260246000fd5b6001600160a01b0381168114620002ef57600080fd5b50565b60805160601c60a05160601c60c051610b93620003526000396000818161010f0152818161031c015281816103c4015281816106c10152610796015260008181610211015261036601526000818161017801526106e90152610b936000f3fe60806040526004361061009a5760003560e01c8063715018a6116100695780639b602d601161004e5780639b602d60146101ff578063f2fde38b14610233578063fd2210311461025357600080fd5b8063715018a6146101bf5780638da5cb5b146101d457600080fd5b8063323a9beb146100db5780633fafa127146100fd57806358c3b870146101445780636abcf8e31461016657600080fd5b366100d65760405134815233907fd6717f327e0cb88b4a97a7f67a453e9258252c34937ccbdd86de7cb840e7def39060200160405180910390a2005b600080fd5b3480156100e757600080fd5b506100fb6100f63660046108fd565b610268565b005b34801561010957600080fd5b506101317f000000000000000000000000000000000000000000000000000000000000000081565b6040519081526020015b60405180910390f35b34801561015057600080fd5b5061015961044e565b60405161013b919061095f565b34801561017257600080fd5b5061019a7f000000000000000000000000000000000000000000000000000000000000000081565b60405173ffffffffffffffffffffffffffffffffffffffff909116815260200161013b565b3480156101cb57600080fd5b506100fb6104dc565b3480156101e057600080fd5b5060005473ffffffffffffffffffffffffffffffffffffffff1661019a565b34801561020b57600080fd5b5061019a7f000000000000000000000000000000000000000000000000000000000000000081565b34801561023f57600080fd5b506100fb61024e3660046108d9565b610569565b34801561025f57600080fd5b506100fb610699565b60005473ffffffffffffffffffffffffffffffffffffffff1633146102ee576040517f08c379a000000000000000000000000000000000000000000000000000000000815260206004820181905260248201527f4f776e61626c653a2063616c6c6572206973206e6f7420746865206f776e657260448201526064015b60405180910390fd5b6040517f33681fb10000000000000000000000000000000000000000000000000000000081523060048201527f000000000000000000000000000000000000000000000000000000000000000060248201526044810182905273ffffffffffffffffffffffffffffffffffffffff83811660648301527f000000000000000000000000000000000000000000000000000000000000000016906333681fb190608401600060405180830381600087803b1580156103aa57600080fd5b505af11580156103be573d6000803e3d6000fd5b505050507f00000000000000000000000000000000000000000000000000000000000000008273ffffffffffffffffffffffffffffffffffffffff163373ffffffffffffffffffffffffffffffffffffffff167fb160bbc4aa5a748ded771f39724cf08e31503f67d71efcb891aea516c01e16138460405161044291815260200190565b60405180910390a45050565b6001805461045b90610ae7565b80601f016020809104026020016040519081016040528092919081815260200182805461048790610ae7565b80156104d45780601f106104a9576101008083540402835291602001916104d4565b820191906000526020600020905b8154815290600101906020018083116104b757829003601f168201915b505050505081565b60005473ffffffffffffffffffffffffffffffffffffffff16331461055d576040517f08c379a000000000000000000000000000000000000000000000000000000000815260206004820181905260248201527f4f776e61626c653a2063616c6c6572206973206e6f7420746865206f776e657260448201526064016102e5565b6105676000610864565b565b60005473ffffffffffffffffffffffffffffffffffffffff1633146105ea576040517f08c379a000000000000000000000000000000000000000000000000000000000815260206004820181905260248201527f4f776e61626c653a2063616c6c6572206973206e6f7420746865206f776e657260448201526064016102e5565b73ffffffffffffffffffffffffffffffffffffffff811661068d576040517f08c379a000000000000000000000000000000000000000000000000000000000815260206004820152602660248201527f4f776e61626c653a206e6577206f776e657220697320746865207a65726f206160448201527f646472657373000000000000000000000000000000000000000000000000000060648201526084016102e5565b61069681610864565b50565b6040517f4fe0eced0000000000000000000000000000000000000000000000000000000081527f0000000000000000000000000000000000000000000000000000000000000000600482015247907f000000000000000000000000000000000000000000000000000000000000000073ffffffffffffffffffffffffffffffffffffffff1690634fe0eced9060240160206040518083038186803b15801561074057600080fd5b505afa158015610754573d6000803e3d6000fd5b505050506040513d601f19601f820116820180604052508101906107789190610929565b73ffffffffffffffffffffffffffffffffffffffff166302c8986f827f000000000000000000000000000000000000000000000000000000000000000030600160006040518663ffffffff1660e01b81526004016107d994939291906109d2565b6020604051808303818588803b1580156107f257600080fd5b505af1158015610806573d6000803e3d6000fd5b50505050506040513d601f19601f8201168201806040525081019061082b9190610946565b5060405181815233907ffc3b98e76f4840b19b2829249e3a6ec2bbac1fb30a799c637102913eb3928a069060200160405180910390a250565b6000805473ffffffffffffffffffffffffffffffffffffffff8381167fffffffffffffffffffffffff0000000000000000000000000000000000000000831681178455604051919092169283917f8be0079c531659141344cd1fd0a4f28419497f9722a3daafe3b4186f6b6457e09190a35050565b6000602082840312156108eb57600080fd5b81356108f681610b3b565b9392505050565b6000806040838503121561091057600080fd5b823561091b81610b3b565b946020939093013593505050565b60006020828403121561093b57600080fd5b81516108f681610b3b565b60006020828403121561095857600080fd5b5051919050565b600060208083528351808285015260005b8181101561098c57858101830151858201604001528201610970565b8181111561099e576000604083870101525b50601f017fffffffffffffffffffffffffffffffffffffffffffffffffffffffffffffffe016929092016040019392505050565b8481526000602073ffffffffffffffffffffffffffffffffffffffff861681840152608060408401526000855481600182811c915080831680610a1657607f831692505b858310811415610a4d577f4e487b710000000000000000000000000000000000000000000000000000000085526022600452602485fd5b6080880183905260a08801818015610a6c5760018114610a9b57610ac6565b7fffffffffffffffffffffffffffffffffffffffffffffffffffffffffffffff00861682528782019650610ac6565b60008c81526020902060005b86811015610ac057815484820152908501908901610aa7565b83019750505b50505050861515606087015250909250610ade915050565b95945050505050565b600181811c90821680610afb57607f821691505b60208210811415610b35577f4e487b7100000000000000000000000000000000000000000000000000000000600052602260045260246000fd5b50919050565b73ffffffffffffffffffffffffffffffffffffffff8116811461069657600080fdfea2646970667358221220508ac344a99ca8c7ab1036f5224abb5b3993033813f390ed6452d02971dd807864736f6c63430008060033a26469706673582212202e38118462a318b6c7f96646baef9fdb76f784df24d62c9f5ecd9485f62c042064736f6c63430008060033",
  "devdoc": {
    "kind": "dev",
    "methods": {
      "addressesOf(uint256)": {
        "params": {
          "_projectId": "The ID of the project to get proxy payment addresses for."
        },
        "returns": {
          "_0": "A list of proxy payment addresses for the specified project ID."
        }
      },
      "deploy(uint256,string)": {
        "params": {
          "_memo": "Memo that will be attached withdrawal transactions.",
          "_projectId": "ID of the project funds will be fowarded to."
        }
      }
    },
    "version": 1
  },
  "userdoc": {
    "kind": "user",
    "methods": {
      "addressesOf(uint256)": {
        "notice": " A list of all proxy payment addresses for the specified project ID."
      },
      "deploy(uint256,string)": {
        "notice": "Deploys a proxy payment address."
      },
      "terminalDirectory()": {
        "notice": "The directory that will be injected into proxy payment addresses."
      },
      "ticketBooth()": {
        "notice": "The ticket boot that will be injected into proxy payment addresses."
      }
    },
    "notice": "Manages deploying proxy payment addresses for Candybox projects.",
    "version": 1
  },
  "storageLayout": {
    "storage": [
      {
        "astId": 8665,
        "contract": "contracts/ProxyPaymentAddressManager.sol:ProxyPaymentAddressManager",
        "label": "_addressesOf",
        "offset": 0,
        "slot": "0",
        "type": "t_mapping(t_uint256,t_array(t_contract(IProxyPaymentAddress)16942)dyn_storage)"
      }
    ],
    "types": {
      "t_array(t_contract(IProxyPaymentAddress)16942)dyn_storage": {
        "base": "t_contract(IProxyPaymentAddress)16942",
        "encoding": "dynamic_array",
        "label": "contract IProxyPaymentAddress[]",
        "numberOfBytes": "32"
      },
      "t_contract(IProxyPaymentAddress)16942": {
        "encoding": "inplace",
        "label": "contract IProxyPaymentAddress",
        "numberOfBytes": "20"
      },
      "t_mapping(t_uint256,t_array(t_contract(IProxyPaymentAddress)16942)dyn_storage)": {
        "encoding": "mapping",
        "key": "t_uint256",
        "label": "mapping(uint256 => contract IProxyPaymentAddress[])",
        "numberOfBytes": "32",
        "value": "t_array(t_contract(IProxyPaymentAddress)16942)dyn_storage"
      },
      "t_uint256": {
        "encoding": "inplace",
        "label": "uint256",
        "numberOfBytes": "32"
      }
    }
  }
}