{
  "address": "0x05ED5FE62FDb5216b1105Ed7DE80A79b01D8642F",
  "abi": [
    {
      "inputs": [
        {
          "internalType": "uint256",
          "name": "_projectId",
          "type": "uint256"
        },
        {
          "internalType": "contract ITerminalDirectory",
          "name": "_terminalDirectory",
          "type": "address"
        }
      ],
      "stateMutability": "nonpayable",
      "type": "constructor"
    },
    {
      "anonymous": false,
      "inputs": [
        {
          "indexed": true,
          "internalType": "address",
          "name": "previousOwner",
          "type": "address"
        },
        {
          "indexed": true,
          "internalType": "address",
          "name": "newOwner",
          "type": "address"
        }
      ],
      "name": "OwnershipTransferred",
      "type": "event"
    },
    {
      "inputs": [
        {
          "internalType": "contract ITerminalV1",
          "name": "_terminalV1",
          "type": "address"
        }
      ],
      "name": "acceptGovernance",
      "outputs": [],
      "stateMutability": "nonpayable",
      "type": "function"
    },
    {
      "inputs": [
        {
          "internalType": "contract IPrices",
          "name": "_prices",
          "type": "address"
        },
        {
          "internalType": "contract AggregatorV3Interface",
          "name": "_feed",
          "type": "address"
        },
        {
          "internalType": "uint256",
          "name": "_currency",
          "type": "uint256"
        }
      ],
      "name": "addPriceFeed",
      "outputs": [],
      "stateMutability": "nonpayable",
      "type": "function"
    },
    {
      "inputs": [
        {
          "internalType": "contract ITerminal",
          "name": "_from",
          "type": "address"
        },
        {
          "internalType": "contract ITerminal",
          "name": "_to",
          "type": "address"
        }
      ],
      "name": "allowMigration",
      "outputs": [],
      "stateMutability": "nonpayable",
      "type": "function"
    },
    {
      "inputs": [
        {
          "internalType": "contract ITerminalV1",
          "name": "_terminalV1",
          "type": "address"
        },
        {
          "internalType": "address payable",
          "name": "_newGovernance",
          "type": "address"
        }
      ],
      "name": "appointGovernance",
      "outputs": [],
      "stateMutability": "nonpayable",
      "type": "function"
    },
    {
      "inputs": [
        {
          "internalType": "address",
          "name": "",
          "type": "address"
        },
        {
          "internalType": "address",
          "name": "",
          "type": "address"
        },
        {
          "internalType": "uint256",
          "name": "",
          "type": "uint256"
        },
        {
          "internalType": "bytes",
          "name": "",
          "type": "bytes"
        }
      ],
      "name": "onERC721Received",
      "outputs": [
        {
          "internalType": "bytes4",
          "name": "",
          "type": "bytes4"
        }
      ],
      "stateMutability": "pure",
      "type": "function"
    },
    {
      "inputs": [],
      "name": "owner",
      "outputs": [
        {
          "internalType": "address",
          "name": "",
          "type": "address"
        }
      ],
      "stateMutability": "view",
      "type": "function"
    },
    {
      "inputs": [
        {
          "internalType": "address",
          "name": "_beneficiary",
          "type": "address"
        },
        {
          "internalType": "string",
          "name": "_memo",
          "type": "string"
        },
        {
          "internalType": "bool",
          "name": "_preferUnstakedTickets",
          "type": "bool"
        }
      ],
      "name": "pay",
      "outputs": [],
      "stateMutability": "payable",
      "type": "function"
    },
    {
      "inputs": [],
      "name": "projectId",
      "outputs": [
        {
          "internalType": "uint256",
          "name": "",
          "type": "uint256"
        }
      ],
      "stateMutability": "view",
      "type": "function"
    },
    {
      "inputs": [],
      "name": "renounceOwnership",
      "outputs": [],
      "stateMutability": "nonpayable",
      "type": "function"
    },
    {
      "inputs": [
        {
          "internalType": "contract ITerminalV1",
          "name": "_terminalV1",
          "type": "address"
        },
        {
          "internalType": "uint256",
          "name": "_fee",
          "type": "uint256"
        }
      ],
      "name": "setFee",
      "outputs": [],
      "stateMutability": "nonpayable",
      "type": "function"
    },
    {
      "inputs": [
        {
          "internalType": "contract IOperatorStore",
          "name": "_operatorStore",
          "type": "address"
        },
        {
          "internalType": "address",
          "name": "_operator",
          "type": "address"
        },
        {
          "internalType": "uint256",
          "name": "_projectId",
          "type": "uint256"
        },
        {
          "internalType": "uint256[]",
          "name": "_permissionIndexes",
          "type": "uint256[]"
        }
      ],
      "name": "setOperator",
      "outputs": [],
      "stateMutability": "nonpayable",
      "type": "function"
    },
    {
      "inputs": [
        {
          "internalType": "contract IOperatorStore",
          "name": "_operatorStore",
          "type": "address"
        },
        {
          "internalType": "address[]",
          "name": "_operators",
          "type": "address[]"
        },
        {
          "internalType": "uint256[]",
          "name": "_projectIds",
          "type": "uint256[]"
        },
        {
          "internalType": "uint256[][]",
          "name": "_permissionIndexes",
          "type": "uint256[][]"
        }
      ],
      "name": "setOperators",
      "outputs": [],
      "stateMutability": "nonpayable",
      "type": "function"
    },
    {
      "inputs": [
        {
          "internalType": "uint256",
          "name": "_projectId",
          "type": "uint256"
        }
      ],
      "name": "setProjectId",
      "outputs": [],
      "stateMutability": "nonpayable",
      "type": "function"
    },
    {
      "inputs": [],
      "name": "terminalDirectory",
      "outputs": [
        {
          "internalType": "contract ITerminalDirectory",
          "name": "",
          "type": "address"
        }
      ],
      "stateMutability": "view",
      "type": "function"
    },
    {
      "inputs": [
        {
          "internalType": "address",
          "name": "newOwner",
          "type": "address"
        }
      ],
      "name": "transferOwnership",
      "outputs": [],
      "stateMutability": "nonpayable",
      "type": "function"
    },
    {
      "inputs": [
        {
          "internalType": "contract IProjects",
          "name": "_projects",
          "type": "address"
        },
        {
          "internalType": "address",
          "name": "_newOwner",
          "type": "address"
        },
        {
          "internalType": "uint256",
          "name": "_projectId",
          "type": "uint256"
        },
        {
          "internalType": "bytes",
          "name": "_data",
          "type": "bytes"
        }
      ],
      "name": "transferProjectOwnership",
      "outputs": [],
      "stateMutability": "nonpayable",
      "type": "function"
    },
    {
      "inputs": [
        {
          "internalType": "address payable",
          "name": "_beneficiary",
          "type": "address"
        },
        {
          "internalType": "uint256",
          "name": "_amount",
          "type": "uint256"
        }
      ],
      "name": "withdraw",
      "outputs": [],
      "stateMutability": "nonpayable",
      "type": "function"
    },
    {
      "stateMutability": "payable",
      "type": "receive"
    }
  ],
  "transactionHash": "0xfae55d89b223015a60c52f900212b30b4af10bfce736e9919a02e91fff4d6781",
  "args": [
    1,
    "0xF3eb8F354DCf96b6514313e7750Ded0746a5b71c"
  ],
  "solcInputHash": "ccb7a7bd8fb2979a6e849901853bc8b7",
  "bytecode": "0x60a060405234801561001057600080fd5b506040516118b83803806118b883398101604081905261002f916100a8565b818161003a33610058565b60019190915560601b6001600160601b031916608052506100e59050565b600080546001600160a01b038381166001600160a01b0319831681178455604051919092169283917f8be0079c531659141344cd1fd0a4f28419497f9722a3daafe3b4186f6b6457e09190a35050565b600080604083850312156100bb57600080fd5b825160208401519092506001600160a01b03811681146100da57600080fd5b809150509250929050565b60805160601c6117ae61010a60003960008181610231015261086501526117ae6000f3fe6080604052600436106101125760003560e01c8063897c063e116100a5578063c0a485e211610074578063e55156b511610059578063e55156b51461036b578063f2fde38b1461038b578063f3fef3a3146103ab57600080fd5b8063c0a485e21461032b578063ce9246dd1461034b57600080fd5b8063897c063e146102ad5780638da5cb5b146102c0578063999a244f146102eb578063bda773861461030b57600080fd5b80635f23d794116100e15780635f23d794146101ff5780636abcf8e31461021f578063715018a614610278578063787768821461028d57600080fd5b8063150b7a021461011e5780631d6c1343146101995780633fafa127146101bb578063544c0e15146101df57600080fd5b3661011957005b600080fd5b34801561012a57600080fd5b506101636101393660046111ee565b7f150b7a020000000000000000000000000000000000000000000000000000000095945050505050565b6040517fffffffff0000000000000000000000000000000000000000000000000000000090911681526020015b60405180910390f35b3480156101a557600080fd5b506101b96101b436600461141e565b6103cb565b005b3480156101c757600080fd5b506101d160015481565b604051908152602001610190565b3480156101eb57600080fd5b506101b96101fa3660046112ce565b6104bd565b34801561020b57600080fd5b506101b961021a36600461119e565b6105b5565b34801561022b57600080fd5b506102537f000000000000000000000000000000000000000000000000000000000000000081565b60405173ffffffffffffffffffffffffffffffffffffffff9091168152602001610190565b34801561028457600080fd5b506101b961067f565b34801561029957600080fd5b506101b96102a836600461141e565b6106f2565b6101b96102bb366004611261565b6107ad565b3480156102cc57600080fd5b5060005473ffffffffffffffffffffffffffffffffffffffff16610253565b3480156102f757600080fd5b506101b9610306366004611330565b610a26565b34801561031757600080fd5b506101b96103263660046113dd565b610b24565b34801561033757600080fd5b506101b96103463660046111ee565b610c18565b34801561035757600080fd5b506101b9610366366004611474565b610cd9565b34801561037757600080fd5b506101b96103863660046111c2565b610d45565b34801561039757600080fd5b506101b96103a636600461119e565b610dff565b3480156103b757600080fd5b506101b96103c63660046111c2565b610efb565b60005473ffffffffffffffffffffffffffffffffffffffff1633146104375760405162461bcd60e51b815260206004820181905260248201527f4f776e61626c653a2063616c6c6572206973206e6f7420746865206f776e657260448201526064015b60405180910390fd5b6040517fe2c673a500000000000000000000000000000000000000000000000000000000815273ffffffffffffffffffffffffffffffffffffffff828116600483015283169063e2c673a5906024015b600060405180830381600087803b1580156104a157600080fd5b505af11580156104b5573d6000803e3d6000fd5b505050505050565b60005473ffffffffffffffffffffffffffffffffffffffff1633146105245760405162461bcd60e51b815260206004820181905260248201527f4f776e61626c653a2063616c6c6572206973206e6f7420746865206f776e6572604482015260640161042e565b6040517f5ea6cc8600000000000000000000000000000000000000000000000000000000815273ffffffffffffffffffffffffffffffffffffffff861690635ea6cc869061057c908790879087908790600401611589565b600060405180830381600087803b15801561059657600080fd5b505af11580156105aa573d6000803e3d6000fd5b505050505050505050565b60005473ffffffffffffffffffffffffffffffffffffffff16331461061c5760405162461bcd60e51b815260206004820181905260248201527f4f776e61626c653a2063616c6c6572206973206e6f7420746865206f776e6572604482015260640161042e565b8073ffffffffffffffffffffffffffffffffffffffff1663238efcbc6040518163ffffffff1660e01b8152600401600060405180830381600087803b15801561066457600080fd5b505af1158015610678573d6000803e3d6000fd5b5050505050565b60005473ffffffffffffffffffffffffffffffffffffffff1633146106e65760405162461bcd60e51b815260206004820181905260248201527f4f776e61626c653a2063616c6c6572206973206e6f7420746865206f776e6572604482015260640161042e565b6106f06000610f70565b565b60005473ffffffffffffffffffffffffffffffffffffffff1633146107595760405162461bcd60e51b815260206004820181905260248201527f4f776e61626c653a2063616c6c6572206973206e6f7420746865206f776e6572604482015260640161042e565b6040517f308a20ad00000000000000000000000000000000000000000000000000000000815273ffffffffffffffffffffffffffffffffffffffff828116600483015283169063308a20ad90602401610487565b6001546108225760405162461bcd60e51b815260206004820152602760248201527f43616e6479626f7850726f6a6563743a3a7061793a2050524f4a4543545f4e4f60448201527f545f464f554e4400000000000000000000000000000000000000000000000000606482015260840161042e565b6001546040517f4fe0eced00000000000000000000000000000000000000000000000000000000815260009173ffffffffffffffffffffffffffffffffffffffff7f00000000000000000000000000000000000000000000000000000000000000001691634fe0eced9161089c9160040190815260200190565b60206040518083038186803b1580156108b457600080fd5b505afa1580156108c8573d6000803e3d6000fd5b505050506040513d601f19601f820116820180604052508101906108ec9190611457565b905073ffffffffffffffffffffffffffffffffffffffff81166109775760405162461bcd60e51b815260206004820152602860248201527f43616e6479626f7850726f6a6563743a3a7061793a205445524d494e414c5f4e60448201527f4f545f464f554e44000000000000000000000000000000000000000000000000606482015260840161042e565b6001546040517f02c8986f00000000000000000000000000000000000000000000000000000000815273ffffffffffffffffffffffffffffffffffffffff8316916302c8986f9134916109d4918a908a908a908a9060040161170c565b6020604051808303818588803b1580156109ed57600080fd5b505af1158015610a01573d6000803e3d6000fd5b50505050506040513d601f19601f820116820180604052508101906104b5919061148d565b60005473ffffffffffffffffffffffffffffffffffffffff163314610a8d5760405162461bcd60e51b815260206004820181905260248201527f4f776e61626c653a2063616c6c6572206973206e6f7420746865206f776e6572604482015260640161042e565b6040517f93535be100000000000000000000000000000000000000000000000000000000815273ffffffffffffffffffffffffffffffffffffffff8816906393535be190610ae9908990899089908990899089906004016115c9565b600060405180830381600087803b158015610b0357600080fd5b505af1158015610b17573d6000803e3d6000fd5b5050505050505050505050565b60005473ffffffffffffffffffffffffffffffffffffffff163314610b8b5760405162461bcd60e51b815260206004820181905260248201527f4f776e61626c653a2063616c6c6572206973206e6f7420746865206f776e6572604482015260640161042e565b6040517fa967c20b00000000000000000000000000000000000000000000000000000000815273ffffffffffffffffffffffffffffffffffffffff83811660048301526024820183905284169063a967c20b90604401600060405180830381600087803b158015610bfb57600080fd5b505af1158015610c0f573d6000803e3d6000fd5b50505050505050565b60005473ffffffffffffffffffffffffffffffffffffffff163314610c7f5760405162461bcd60e51b815260206004820181905260248201527f4f776e61626c653a2063616c6c6572206973206e6f7420746865206f776e6572604482015260640161042e565b6040517fb88d4fde00000000000000000000000000000000000000000000000000000000815273ffffffffffffffffffffffffffffffffffffffff86169063b88d4fde9061057c903090889088908890889060040161153e565b60005473ffffffffffffffffffffffffffffffffffffffff163314610d405760405162461bcd60e51b815260206004820181905260248201527f4f776e61626c653a2063616c6c6572206973206e6f7420746865206f776e6572604482015260640161042e565b600155565b60005473ffffffffffffffffffffffffffffffffffffffff163314610dac5760405162461bcd60e51b815260206004820181905260248201527f4f776e61626c653a2063616c6c6572206973206e6f7420746865206f776e6572604482015260640161042e565b6040517f69fe0e2d0000000000000000000000000000000000000000000000000000000081526004810182905273ffffffffffffffffffffffffffffffffffffffff8316906369fe0e2d90602401610487565b60005473ffffffffffffffffffffffffffffffffffffffff163314610e665760405162461bcd60e51b815260206004820181905260248201527f4f776e61626c653a2063616c6c6572206973206e6f7420746865206f776e6572604482015260640161042e565b73ffffffffffffffffffffffffffffffffffffffff8116610eef5760405162461bcd60e51b815260206004820152602660248201527f4f776e61626c653a206e6577206f776e657220697320746865207a65726f206160448201527f6464726573730000000000000000000000000000000000000000000000000000606482015260840161042e565b610ef881610f70565b50565b60005473ffffffffffffffffffffffffffffffffffffffff163314610f625760405162461bcd60e51b815260206004820181905260248201527f4f776e61626c653a2063616c6c6572206973206e6f7420746865206f776e6572604482015260640161042e565b610f6c8282610fe5565b5050565b6000805473ffffffffffffffffffffffffffffffffffffffff8381167fffffffffffffffffffffffff0000000000000000000000000000000000000000831681178455604051919092169283917f8be0079c531659141344cd1fd0a4f28419497f9722a3daafe3b4186f6b6457e09190a35050565b804710156110355760405162461bcd60e51b815260206004820152601d60248201527f416464726573733a20696e73756666696369656e742062616c616e6365000000604482015260640161042e565b60008273ffffffffffffffffffffffffffffffffffffffff168260405160006040518083038185875af1925050503d806000811461108f576040519150601f19603f3d011682016040523d82523d6000602084013e611094565b606091505b505090508061110b5760405162461bcd60e51b815260206004820152603a60248201527f416464726573733a20756e61626c6520746f2073656e642076616c75652c207260448201527f6563697069656e74206d61792068617665207265766572746564000000000000606482015260840161042e565b505050565b60008083601f84011261112257600080fd5b50813567ffffffffffffffff81111561113a57600080fd5b6020830191508360208260051b850101111561115557600080fd5b9250929050565b60008083601f84011261116e57600080fd5b50813567ffffffffffffffff81111561118657600080fd5b60208301915083602082850101111561115557600080fd5b6000602082840312156111b057600080fd5b81356111bb81611756565b9392505050565b600080604083850312156111d557600080fd5b82356111e081611756565b946020939093013593505050565b60008060008060006080868803121561120657600080fd5b853561121181611756565b9450602086013561122181611756565b935060408601359250606086013567ffffffffffffffff81111561124457600080fd5b6112508882890161115c565b969995985093965092949392505050565b6000806000806060858703121561127757600080fd5b843561128281611756565b9350602085013567ffffffffffffffff81111561129e57600080fd5b6112aa8782880161115c565b909450925050604085013580151581146112c357600080fd5b939692955090935050565b6000806000806000608086880312156112e657600080fd5b85356112f181611756565b9450602086013561130181611756565b935060408601359250606086013567ffffffffffffffff81111561132457600080fd5b61125088828901611110565b60008060008060008060006080888a03121561134b57600080fd5b873561135681611756565b9650602088013567ffffffffffffffff8082111561137357600080fd5b61137f8b838c01611110565b909850965060408a013591508082111561139857600080fd5b6113a48b838c01611110565b909650945060608a01359150808211156113bd57600080fd5b506113ca8a828b01611110565b989b979a50959850939692959293505050565b6000806000606084860312156113f257600080fd5b83356113fd81611756565b9250602084013561140d81611756565b929592945050506040919091013590565b6000806040838503121561143157600080fd5b823561143c81611756565b9150602083013561144c81611756565b809150509250929050565b60006020828403121561146957600080fd5b81516111bb81611756565b60006020828403121561148657600080fd5b5035919050565b60006020828403121561149f57600080fd5b5051919050565b81835260007f07ffffffffffffffffffffffffffffffffffffffffffffffffffffffffffffff8311156114d857600080fd5b8260051b8083602087013760009401602001938452509192915050565b8183528181602085013750600060208284010152600060207fffffffffffffffffffffffffffffffffffffffffffffffffffffffffffffffe0601f840116840101905092915050565b600073ffffffffffffffffffffffffffffffffffffffff80881683528087166020840152508460408301526080606083015261157e6080830184866114f5565b979650505050505050565b73ffffffffffffffffffffffffffffffffffffffff851681528360208201526060604082015260006115bf6060830184866114a6565b9695505050505050565b6060808252810186905260008760808301825b898110156116195782356115ef81611756565b73ffffffffffffffffffffffffffffffffffffffff168252602092830192909101906001016115dc565b50602091508381038285015261163081888a6114a6565b84810360408601528581529050818101600586811b830184018860005b898110156116f9577fffffffffffffffffffffffffffffffffffffffffffffffffffffffffffffffe086840301855281357fffffffffffffffffffffffffffffffffffffffffffffffffffffffffffffffe18c36030181126116ae57600080fd5b8b01803567ffffffffffffffff8111156116c757600080fd5b80861b36038d13156116d857600080fd5b6116e585828b85016114a6565b96890196945050509086019060010161164d565b50909d9c50505050505050505050505050565b85815273ffffffffffffffffffffffffffffffffffffffff851660208201526080604082015260006117426080830185876114f5565b905082151560608301529695505050505050565b73ffffffffffffffffffffffffffffffffffffffff81168114610ef857600080fdfea2646970667358221220a7698d4673e211ddaf6b50fcf508a9f9edcc101b4e632518abc4768f484dc8e864736f6c63430008060033",
  "devdoc": {
    "kind": "dev",
    "methods": {
      "acceptGovernance(address)": {
        "params": {
          "_terminalV1": "The terminalV1 to change the governance of."
        }
      },
      "addPriceFeed(address,address,uint256)": {
        "params": {
          "_currency": "The currency the price feed is for.",
          "_feed": "The price feed to add.",
          "_prices": "The prices contract to add a feed to."
        }
      },
      "allowMigration(address,address)": {
        "params": {
          "_from": "The terminal to allow a new migration from.",
          "_to": "The terminal to allow migration to."
        }
      },
      "appointGovernance(address,address)": {
        "params": {
          "_newGovernance": "The address to appoint as governance.",
          "_terminalV1": "The terminalV1 to change the governance of."
        }
      },
      "owner()": {
        "details": "Returns the address of the current owner."
      },
      "pay(address,string,bool)": {
        "params": {
          "_beneficiary": "The address who will receive tickets from this fee.",
          "_memo": "A memo that will be included in the published event.",
          "_preferUnstakedTickets": "Whether ERC20's should be claimed automatically if they have been issued."
        }
      },
      "renounceOwnership()": {
        "details": "Leaves the contract without owner. It will not be possible to call `onlyOwner` functions anymore. Can only be called by the current owner. NOTE: Renouncing ownership will leave the contract without an owner, thereby removing any functionality that is only available to the owner."
      },
      "setFee(address,uint256)": {
        "params": {
          "_fee": "The new fee.",
          "_terminalV1": "The terminalV1 to change the fee of."
        }
      },
      "setProjectId(uint256)": {
        "params": {
          "_projectId": "The ID of the project that is being managed."
        }
      },
      "transferOwnership(address)": {
        "details": "Transfers ownership of the contract to a new account (`newOwner`). Can only be called by the current owner."
      },
      "transferProjectOwnership(address,address,uint256,bytes)": {
        "details": "This contract will no longer be able to reconfigure or tap funds from this project.",
        "params": {
          "_data": "Arbitrary data to include in the transaction.",
          "_newOwner": "The new project owner.",
          "_projectId": "The ID of the project to transfer ownership of.",
          "_projects": "The projects contract."
        }
      },
      "withdraw(address,uint256)": {
        "params": {
          "_amount": "The amount to send.",
          "_beneficiary": "The address to send the funds to."
        }
      }
    },
    "version": 1
  },
  "userdoc": {
    "kind": "user",
    "methods": {
      "acceptGovernance(address)": {
        "notice": "Accepts the offer to be the governance of a new terminalV1."
      },
      "addPriceFeed(address,address,uint256)": {
        "notice": "Adds a price feed."
      },
      "allowMigration(address,address)": {
        "notice": "Gives projects using one Terminal access to migrate to another Terminal."
      },
      "appointGovernance(address,address)": {
        "notice": "Appoints a new governance for the specified terminalV1."
      },
      "onERC721Received(address,address,uint256,bytes)": {
        "notice": "Allows this contract to receive a project."
      },
      "pay(address,string,bool)": {
        "notice": "Make a payment to this project."
      },
      "projectId()": {
        "notice": "The ID of the project that should be used to forward this contract's received payments."
      },
      "setFee(address,uint256)": {
        "notice": "Sets the fee of the TerminalV1."
      },
      "setProjectId(uint256)": {
        "notice": "Allows the project that is being managed to be set."
      },
      "terminalDirectory()": {
        "notice": "The direct deposit terminals."
      },
      "transferProjectOwnership(address,address,uint256,bytes)": {
        "notice": "Transfer the ownership of the project to a new owner.  "
      },
      "withdraw(address,uint256)": {
        "notice": "Withdraws funds stored in this contract."
      }
    },
    "notice": "Owner should eventually change to a multisig wallet contract.",
    "version": 1
  },
  "storageLayout": {
    "storage": [
      {
        "astId": 53,
        "contract": "contracts/Governance.sol:Governance",
        "label": "_owner",
        "offset": 0,
        "slot": "0",
        "type": "t_address"
      },
      {
        "astId": 15358,
        "contract": "contracts/Governance.sol:Governance",
        "label": "projectId",
        "offset": 0,
        "slot": "1",
        "type": "t_uint256"
      }
    ],
    "types": {
      "t_address": {
        "encoding": "inplace",
        "label": "address",
        "numberOfBytes": "20"
      },
      "t_uint256": {
        "encoding": "inplace",
        "label": "uint256",
        "numberOfBytes": "32"
      }
    }
  }
}