{
  "address": "0xD4d698441EEC2A7f1408679811DfA85fC6B18546",
  "abi": [
    {
      "anonymous": false,
      "inputs": [
        {
          "indexed": true,
          "internalType": "uint256",
          "name": "currency",
          "type": "uint256"
        },
        {
          "indexed": true,
          "internalType": "contract AggregatorV3Interface",
          "name": "feed",
          "type": "address"
        }
      ],
      "name": "AddFeed",
      "type": "event"
    },
    {
      "anonymous": false,
      "inputs": [
        {
          "indexed": true,
          "internalType": "address",
          "name": "previousOwner",
          "type": "address"
        },
        {
          "indexed": true,
          "internalType": "address",
          "name": "newOwner",
          "type": "address"
        }
      ],
      "name": "OwnershipTransferred",
      "type": "event"
    },
    {
      "inputs": [
        {
          "internalType": "contract AggregatorV3Interface",
          "name": "_feed",
          "type": "address"
        },
        {
          "internalType": "uint256",
          "name": "_currency",
          "type": "uint256"
        }
      ],
      "name": "addFeed",
      "outputs": [],
      "stateMutability": "nonpayable",
      "type": "function"
    },
    {
      "inputs": [
        {
          "internalType": "uint256",
          "name": "",
          "type": "uint256"
        }
      ],
      "name": "feedDecimalAdjuster",
      "outputs": [
        {
          "internalType": "uint256",
          "name": "",
          "type": "uint256"
        }
      ],
      "stateMutability": "view",
      "type": "function"
    },
    {
      "inputs": [
        {
          "internalType": "uint256",
          "name": "",
          "type": "uint256"
        }
      ],
      "name": "feedFor",
      "outputs": [
        {
          "internalType": "contract AggregatorV3Interface",
          "name": "",
          "type": "address"
        }
      ],
      "stateMutability": "view",
      "type": "function"
    },
    {
      "inputs": [
        {
          "internalType": "uint256",
          "name": "_currency",
          "type": "uint256"
        }
      ],
      "name": "getETHPriceFor",
      "outputs": [
        {
          "internalType": "uint256",
          "name": "",
          "type": "uint256"
        }
      ],
      "stateMutability": "view",
      "type": "function"
    },
    {
      "inputs": [],
      "name": "owner",
      "outputs": [
        {
          "internalType": "address",
          "name": "",
          "type": "address"
        }
      ],
      "stateMutability": "view",
      "type": "function"
    },
    {
      "inputs": [],
      "name": "renounceOwnership",
      "outputs": [],
      "stateMutability": "nonpayable",
      "type": "function"
    },
    {
      "inputs": [],
      "name": "targetDecimals",
      "outputs": [
        {
          "internalType": "uint256",
          "name": "",
          "type": "uint256"
        }
      ],
      "stateMutability": "view",
      "type": "function"
    },
    {
      "inputs": [
        {
          "internalType": "address",
          "name": "newOwner",
          "type": "address"
        }
      ],
      "name": "transferOwnership",
      "outputs": [],
      "stateMutability": "nonpayable",
      "type": "function"
    }
  ],
  "transactionHash": "0xb33260d53ff24923c4a2a8545e622e62a1eab479c11ab88c1f148b3f56262b46",
  "args": [],
  "solcInputHash": "ccb7a7bd8fb2979a6e849901853bc8b7",
  "bytecode": "0x608060405234801561001057600080fd5b5061001a3361001f565b61006f565b600080546001600160a01b038381166001600160a01b0319831681178455604051919092169283917f8be0079c531659141344cd1fd0a4f28419497f9722a3daafe3b4186f6b6457e09190a35050565b610b268061007e6000396000f3fe608060405234801561001057600080fd5b50600436106100885760003560e01c80638da5cb5b1161005b5780638da5cb5b1461012d5780639fa937231461014b578063a967c20b1461015e578063f2fde38b1461017157600080fd5b80630aee17f21461008d57806336c1387e146100c05780633e495e66146100c8578063715018a614610123575b600080fd5b6100ad61009b366004610898565b60016020526000908152604090205481565b6040519081526020015b60405180910390f35b6100ad601281565b6100fe6100d6366004610898565b60026020526000908152604090205473ffffffffffffffffffffffffffffffffffffffff1681565b60405173ffffffffffffffffffffffffffffffffffffffff90911681526020016100b7565b61012b610184565b005b60005473ffffffffffffffffffffffffffffffffffffffff166100fe565b6100ad610159366004610898565b610216565b61012b61016c36600461086c565b610363565b61012b61017f366004610848565b610684565b60005473ffffffffffffffffffffffffffffffffffffffff16331461020a576040517f08c379a000000000000000000000000000000000000000000000000000000000815260206004820181905260248201527f4f776e61626c653a2063616c6c6572206973206e6f7420746865206f776e657260448201526064015b60405180910390fd5b61021460006107b4565b565b60008161022f576102296012600a610985565b92915050565b60008281526002602052604090205473ffffffffffffffffffffffffffffffffffffffff16806102bb576040517f08c379a000000000000000000000000000000000000000000000000000000000815260206004820152601e60248201527f5072696365733a3a67657445544850726963653a204e4f545f464f554e4400006044820152606401610201565b60008173ffffffffffffffffffffffffffffffffffffffff1663feaf968c6040518163ffffffff1660e01b815260040160a06040518083038186803b15801561030357600080fd5b505afa158015610317573d6000803e3d6000fd5b505050506040513d601f19601f8201168201806040525081019061033b91906108b1565b50505060008681526001602052604090205490925061035b915082610a4b565b949350505050565b60005473ffffffffffffffffffffffffffffffffffffffff1633146103e4576040517f08c379a000000000000000000000000000000000000000000000000000000000815260206004820181905260248201527f4f776e61626c653a2063616c6c6572206973206e6f7420746865206f776e65726044820152606401610201565b6000811161044e576040517f08c379a000000000000000000000000000000000000000000000000000000000815260206004820152601960248201527f5072696365733a3a616464466565643a205245534552564544000000000000006044820152606401610201565b60008181526002602052604090205473ffffffffffffffffffffffffffffffffffffffff16156104da576040517f08c379a000000000000000000000000000000000000000000000000000000000815260206004820152601f60248201527f5072696365733a3a616464466565643a20414c52454144595f455849535453006044820152606401610201565b60008273ffffffffffffffffffffffffffffffffffffffff1663313ce5676040518163ffffffff1660e01b815260040160206040518083038186803b15801561052257600080fd5b505afa158015610536573d6000803e3d6000fd5b505050506040513d601f19601f8201168201806040525081019061055a9190610901565b60ff16905060128111156105ca576040517f08c379a000000000000000000000000000000000000000000000000000000000815260206004820152601d60248201527f5072696365733a3a616464466565643a204241445f444543494d414c530000006044820152606401610201565b600082815260026020526040902080547fffffffffffffffffffffffff00000000000000000000000000000000000000001673ffffffffffffffffffffffffffffffffffffffff8516179055610621816012610a88565b61062c90600a610985565b60008381526001602052604080822092909255905173ffffffffffffffffffffffffffffffffffffffff85169184917f39f7e6a3cfe66d8f71a7951583f7e721ef29d4650eddf11122c8df3aa1c772fd9190a3505050565b60005473ffffffffffffffffffffffffffffffffffffffff163314610705576040517f08c379a000000000000000000000000000000000000000000000000000000000815260206004820181905260248201527f4f776e61626c653a2063616c6c6572206973206e6f7420746865206f776e65726044820152606401610201565b73ffffffffffffffffffffffffffffffffffffffff81166107a8576040517f08c379a000000000000000000000000000000000000000000000000000000000815260206004820152602660248201527f4f776e61626c653a206e6577206f776e657220697320746865207a65726f206160448201527f64647265737300000000000000000000000000000000000000000000000000006064820152608401610201565b6107b1816107b4565b50565b6000805473ffffffffffffffffffffffffffffffffffffffff8381167fffffffffffffffffffffffff0000000000000000000000000000000000000000831681178455604051919092169283917f8be0079c531659141344cd1fd0a4f28419497f9722a3daafe3b4186f6b6457e09190a35050565b805169ffffffffffffffffffff8116811461084357600080fd5b919050565b60006020828403121561085a57600080fd5b813561086581610ace565b9392505050565b6000806040838503121561087f57600080fd5b823561088a81610ace565b946020939093013593505050565b6000602082840312156108aa57600080fd5b5035919050565b600080600080600060a086880312156108c957600080fd5b6108d286610829565b94506020860151935060408601519250606086015191506108f560808701610829565b90509295509295909350565b60006020828403121561091357600080fd5b815160ff8116811461086557600080fd5b600181815b8085111561097d57817fffffffffffffffffffffffffffffffffffffffffffffffffffffffffffffffff0482111561096357610963610a9f565b8085161561097057918102915b93841c9390800290610929565b509250929050565b6000610865838360008261099b57506001610229565b816109a857506000610229565b81600181146109be57600281146109c8576109e4565b6001915050610229565b60ff8411156109d9576109d9610a9f565b50506001821b610229565b5060208310610133831016604e8410600b8410161715610a07575081810a610229565b610a118383610924565b807fffffffffffffffffffffffffffffffffffffffffffffffffffffffffffffffff04821115610a4357610a43610a9f565b029392505050565b6000817fffffffffffffffffffffffffffffffffffffffffffffffffffffffffffffffff0483118215151615610a8357610a83610a9f565b500290565b600082821015610a9a57610a9a610a9f565b500390565b7f4e487b7100000000000000000000000000000000000000000000000000000000600052601160045260246000fd5b73ffffffffffffffffffffffffffffffffffffffff811681146107b157600080fdfea2646970667358221220c8b163bb51c8a245fe6454266e52d76ce0d6d99500ed131ef97f3aaff440057264736f6c63430008060033",
  "devdoc": {
    "kind": "dev",
    "methods": {
      "addFeed(address,uint256)": {
        "details": "Current feeds can't be modified.",
        "params": {
          "_currency": "The currency that the price feed is for.",
          "_feed": "The price feed being added."
        }
      },
      "getETHPriceFor(uint256)": {
        "params": {
          "_currency": "The currency to get a price for."
        },
        "returns": {
          "_0": "price The price of ETH with 18 decimals."
        }
      },
      "owner()": {
        "details": "Returns the address of the current owner."
      },
      "renounceOwnership()": {
        "details": "Leaves the contract without owner. It will not be possible to call `onlyOwner` functions anymore. Can only be called by the current owner. NOTE: Renouncing ownership will leave the contract without an owner, thereby removing any functionality that is only available to the owner."
      },
      "transferOwnership(address)": {
        "details": "Transfers ownership of the contract to a new account (`newOwner`). Can only be called by the current owner."
      }
    },
    "version": 1
  },
  "userdoc": {
    "kind": "user",
    "methods": {
      "addFeed(address,uint256)": {
        "notice": " Add a price feed for the price of ETH."
      },
      "feedDecimalAdjuster(uint256)": {
        "notice": "The number to multiply each price feed by to get to the target decimals."
      },
      "feedFor(uint256)": {
        "notice": "The available price feeds that can be used to get the price of ETH."
      },
      "getETHPriceFor(uint256)": {
        "notice": " Gets the current price of ETH for the provided currency."
      },
      "targetDecimals()": {
        "notice": "The target number of decimals the price feed results have."
      }
    },
    "notice": "Manage and normalizes ETH price feeds.",
    "version": 1
  },
  "storageLayout": {
    "storage": [
      {
        "astId": 53,
        "contract": "contracts/Prices.sol:Prices",
        "label": "_owner",
        "offset": 0,
        "slot": "0",
        "type": "t_address"
      },
      {
        "astId": 7827,
        "contract": "contracts/Prices.sol:Prices",
        "label": "feedDecimalAdjuster",
        "offset": 0,
        "slot": "1",
        "type": "t_mapping(t_uint256,t_uint256)"
      },
      {
        "astId": 7834,
        "contract": "contracts/Prices.sol:Prices",
        "label": "feedFor",
        "offset": 0,
        "slot": "2",
        "type": "t_mapping(t_uint256,t_contract(AggregatorV3Interface)45)"
      }
    ],
    "types": {
      "t_address": {
        "encoding": "inplace",
        "label": "address",
        "numberOfBytes": "20"
      },
      "t_contract(AggregatorV3Interface)45": {
        "encoding": "inplace",
        "label": "contract AggregatorV3Interface",
        "numberOfBytes": "20"
      },
      "t_mapping(t_uint256,t_contract(AggregatorV3Interface)45)": {
        "encoding": "mapping",
        "key": "t_uint256",
        "label": "mapping(uint256 => contract AggregatorV3Interface)",
        "numberOfBytes": "32",
        "value": "t_contract(AggregatorV3Interface)45"
      },
      "t_mapping(t_uint256,t_uint256)": {
        "encoding": "mapping",
        "key": "t_uint256",
        "label": "mapping(uint256 => uint256)",
        "numberOfBytes": "32",
        "value": "t_uint256"
      },
      "t_uint256": {
        "encoding": "inplace",
        "label": "uint256",
        "numberOfBytes": "32"
      }
    }
  }
}